{
  "contractName": "ERC1155NFT",
  "abi": [
    {
      "inputs": [
        {
          "internalType": "uint256",
          "name": "MLBFunIS",
          "type": "uint256"
        }
      ],
      "stateMutability": "nonpayable",
      "type": "constructor"
    },
    {
      "anonymous": false,
      "inputs": [
        {
          "indexed": true,
          "internalType": "address",
          "name": "account",
          "type": "address"
        },
        {
          "indexed": true,
          "internalType": "address",
          "name": "operator",
          "type": "address"
        },
        {
          "indexed": false,
          "internalType": "bool",
          "name": "approved",
          "type": "bool"
        }
      ],
      "name": "ApprovalForAll",
      "type": "event"
    },
    {
      "anonymous": false,
      "inputs": [
        {
          "indexed": true,
          "internalType": "address",
          "name": "previousOwner",
          "type": "address"
        },
        {
          "indexed": true,
          "internalType": "address",
          "name": "newOwner",
          "type": "address"
        }
      ],
      "name": "OwnershipTransferred",
      "type": "event"
    },
    {
      "anonymous": false,
      "inputs": [
        {
          "indexed": true,
          "internalType": "address",
          "name": "operator",
          "type": "address"
        },
        {
          "indexed": true,
          "internalType": "address",
          "name": "from",
          "type": "address"
        },
        {
          "indexed": true,
          "internalType": "address",
          "name": "to",
          "type": "address"
        },
        {
          "indexed": false,
          "internalType": "uint256[]",
          "name": "ids",
          "type": "uint256[]"
        },
        {
          "indexed": false,
          "internalType": "uint256[]",
          "name": "values",
          "type": "uint256[]"
        }
      ],
      "name": "TransferBatch",
      "type": "event"
    },
    {
      "anonymous": false,
      "inputs": [
        {
          "indexed": true,
          "internalType": "address",
          "name": "operator",
          "type": "address"
        },
        {
          "indexed": true,
          "internalType": "address",
          "name": "from",
          "type": "address"
        },
        {
          "indexed": true,
          "internalType": "address",
          "name": "to",
          "type": "address"
        },
        {
          "indexed": false,
          "internalType": "uint256",
          "name": "id",
          "type": "uint256"
        },
        {
          "indexed": false,
          "internalType": "uint256",
          "name": "value",
          "type": "uint256"
        }
      ],
      "name": "TransferSingle",
      "type": "event"
    },
    {
      "anonymous": false,
      "inputs": [
        {
          "indexed": false,
          "internalType": "string",
          "name": "value",
          "type": "string"
        },
        {
          "indexed": true,
          "internalType": "uint256",
          "name": "id",
          "type": "uint256"
        }
      ],
      "name": "URI",
      "type": "event"
    },
    {
      "inputs": [],
      "name": "MLBFun",
      "outputs": [
        {
          "internalType": "uint256",
          "name": "",
          "type": "uint256"
        }
      ],
      "stateMutability": "view",
      "type": "function",
      "constant": true
    },
    {
      "inputs": [],
      "name": "MLBNFun",
      "outputs": [
        {
          "internalType": "uint256",
          "name": "",
          "type": "uint256"
        }
      ],
      "stateMutability": "view",
      "type": "function",
      "constant": true
    },
    {
      "inputs": [
        {
          "internalType": "address",
          "name": "account",
          "type": "address"
        },
        {
          "internalType": "uint256",
          "name": "id",
          "type": "uint256"
        }
      ],
      "name": "balanceOf",
      "outputs": [
        {
          "internalType": "uint256",
          "name": "",
          "type": "uint256"
        }
      ],
      "stateMutability": "view",
      "type": "function",
      "constant": true
    },
    {
      "inputs": [
        {
          "internalType": "address[]",
          "name": "accounts",
          "type": "address[]"
        },
        {
          "internalType": "uint256[]",
          "name": "ids",
          "type": "uint256[]"
        }
      ],
      "name": "balanceOfBatch",
      "outputs": [
        {
          "internalType": "uint256[]",
          "name": "",
          "type": "uint256[]"
        }
      ],
      "stateMutability": "view",
      "type": "function",
      "constant": true
    },
    {
      "inputs": [
        {
          "internalType": "address",
          "name": "account",
          "type": "address"
        },
        {
          "internalType": "address",
          "name": "operator",
          "type": "address"
        }
      ],
      "name": "isApprovedForAll",
      "outputs": [
        {
          "internalType": "bool",
          "name": "",
          "type": "bool"
        }
      ],
      "stateMutability": "view",
      "type": "function",
      "constant": true
    },
    {
      "inputs": [],
      "name": "owner",
      "outputs": [
        {
          "internalType": "address",
          "name": "",
          "type": "address"
        }
      ],
      "stateMutability": "view",
      "type": "function",
      "constant": true
    },
    {
      "inputs": [],
      "name": "renounceOwnership",
      "outputs": [],
      "stateMutability": "nonpayable",
      "type": "function"
    },
    {
      "inputs": [
        {
          "internalType": "address",
          "name": "from",
          "type": "address"
        },
        {
          "internalType": "address",
          "name": "to",
          "type": "address"
        },
        {
          "internalType": "uint256[]",
          "name": "ids",
          "type": "uint256[]"
        },
        {
          "internalType": "uint256[]",
          "name": "amounts",
          "type": "uint256[]"
        },
        {
          "internalType": "bytes",
          "name": "data",
          "type": "bytes"
        }
      ],
      "name": "safeBatchTransferFrom",
      "outputs": [],
      "stateMutability": "nonpayable",
      "type": "function"
    },
    {
      "inputs": [
        {
          "internalType": "address",
          "name": "from",
          "type": "address"
        },
        {
          "internalType": "address",
          "name": "to",
          "type": "address"
        },
        {
          "internalType": "uint256",
          "name": "id",
          "type": "uint256"
        },
        {
          "internalType": "uint256",
          "name": "amount",
          "type": "uint256"
        },
        {
          "internalType": "bytes",
          "name": "data",
          "type": "bytes"
        }
      ],
      "name": "safeTransferFrom",
      "outputs": [],
      "stateMutability": "nonpayable",
      "type": "function"
    },
    {
      "inputs": [
        {
          "internalType": "address",
          "name": "operator",
          "type": "address"
        },
        {
          "internalType": "bool",
          "name": "approved",
          "type": "bool"
        }
      ],
      "name": "setApprovalForAll",
      "outputs": [],
      "stateMutability": "nonpayable",
      "type": "function"
    },
    {
      "inputs": [
        {
          "internalType": "bytes4",
          "name": "interfaceId",
          "type": "bytes4"
        }
      ],
      "name": "supportsInterface",
      "outputs": [
        {
          "internalType": "bool",
          "name": "",
          "type": "bool"
        }
      ],
      "stateMutability": "view",
      "type": "function",
      "constant": true
    },
    {
      "inputs": [
        {
          "internalType": "address",
          "name": "newOwner",
          "type": "address"
        }
      ],
      "name": "transferOwnership",
      "outputs": [],
      "stateMutability": "nonpayable",
      "type": "function"
    },
    {
      "inputs": [
        {
          "internalType": "uint256",
          "name": "",
          "type": "uint256"
        }
      ],
      "name": "uri",
      "outputs": [
        {
          "internalType": "string",
          "name": "",
          "type": "string"
        }
      ],
      "stateMutability": "view",
      "type": "function",
      "constant": true
    },
    {
      "inputs": [
        {
          "internalType": "string",
          "name": "newuri",
          "type": "string"
        }
      ],
      "name": "setURI",
      "outputs": [],
      "stateMutability": "nonpayable",
      "type": "function"
    },
    {
      "inputs": [
        {
          "internalType": "address",
          "name": "account",
          "type": "address"
        },
        {
          "internalType": "uint256",
          "name": "id",
          "type": "uint256"
        },
        {
          "internalType": "uint256",
          "name": "amount",
          "type": "uint256"
        },
        {
          "internalType": "bytes",
          "name": "data",
          "type": "bytes"
        }
      ],
      "name": "mint",
      "outputs": [],
      "stateMutability": "nonpayable",
      "type": "function"
    },
    {
      "inputs": [
        {
          "internalType": "address",
          "name": "to",
          "type": "address"
        },
        {
          "internalType": "uint256[]",
          "name": "ids",
          "type": "uint256[]"
        },
        {
          "internalType": "uint256[]",
          "name": "amounts",
          "type": "uint256[]"
        },
        {
          "internalType": "bytes",
          "name": "data",
          "type": "bytes"
        }
      ],
      "name": "mintBatch",
      "outputs": [],
      "stateMutability": "nonpayable",
      "type": "function"
    }
  ],
  "bytecode": "0x61010060405260026080908152600360a052600460c0819052600560e052620000299181620007af565b503480156200003757600080fd5b5060405162002ae638038062002ae68339810160408190526200005a91620008c9565b6040805160208101909152600081526200007481620001bf565b506200008962000083620001d8565b620001dd565b620000b9336000620000a484670de0b6b3a764000062000bb5565b6040805160208101909152600081526200022f565b620000dd33600180604051806020016040528060008152506200022f60201b60201c565b620001b87394ace6cc3a7bb25aceab19ac7dc2cfc69b2170c460048054806020026020016040519081016040528092919081815260200182805480156200014457602002820191906000526020600020905b8154815260200190600101908083116200012f575b505050505060048054806020026020016040519081016040528092919081815260200182805480156200019757602002820191906000526020600020905b81548152602001906001019080831162000182575b5050505050604051806020016040528060008152506200035c60201b60201c565b5062000d36565b8051620001d490600290602084019062000804565b5050565b335b90565b600380546001600160a01b038381166001600160a01b0319831681179093556040519116919082907f8be0079c531659141344cd1fd0a4f28419497f9722a3daafe3b4186f6b6457e090600090a35050565b6001600160a01b038416620002615760405162461bcd60e51b8152600401620002589062000b4b565b60405180910390fd5b60006200026d620001d8565b905060006200027c856200050b565b905060006200028b856200050b565b90506200029e8360008985858962000565565b6000868152602081815260408083206001600160a01b038b16845290915281208054879290620002d090849062000b9a565b92505081905550866001600160a01b031660006001600160a01b0316846001600160a01b03167fc3d58168c5ae7397731d063d5bbf3d657854427343f4c083240f7aacaa2d0f6289896040516200032992919062000b8c565b60405180910390a4620003428360008985858962000565565b62000353836000898989896200056d565b50505050505050565b6001600160a01b038416620003855760405162461bcd60e51b8152600401620002589062000b4b565b8151835114620003a95760405162461bcd60e51b8152600401620002589062000b03565b6000620003b5620001d8565b9050620003c88160008787878762000565565b60005b84518110156200048757838181518110620003f657634e487b7160e01b600052603260045260246000fd5b60200260200101516000808784815181106200042257634e487b7160e01b600052603260045260246000fd5b602002602001015181526020019081526020016000206000886001600160a01b03166001600160a01b0316815260200190815260200160002060008282546200046c919062000b9a565b909155508190506200047e8162000c4f565b915050620003cb565b50846001600160a01b031660006001600160a01b0316826001600160a01b03167f4a39dc06d4c0dbc64b70af90fd698a233a518aa5d07e595d983b8c0526c8f7fb8787604051620004da92919062000a17565b60405180910390a4620004f38160008787878762000565565b6200050481600087878787620006b5565b5050505050565b604080516001808252818301909252606091600091906020808301908036833701905050905082816000815181106200055457634e487b7160e01b600052603260045260246000fd5b602090810291909101015292915050565b505050505050565b6200058c846001600160a01b0316620007a060201b6200075a1760201c565b15620005655760405163f23a6e6160e01b81526001600160a01b0385169063f23a6e6190620005c89089908990889088908890600401620009d0565b602060405180830381600087803b158015620005e357600080fd5b505af192505050801562000616575060408051601f3d908101601f19168201909252620006139181019062000898565b60015b62000682576200062562000c83565b806308c379a014156200066657506200063d62000c9b565b806200064a575062000668565b8060405162461bcd60e51b815260040162000258919062000a49565b505b60405162461bcd60e51b8152600401620002589062000a5e565b6001600160e01b0319811663f23a6e6160e01b14620003535760405162461bcd60e51b8152600401620002589062000abb565b620006d4846001600160a01b0316620007a060201b6200075a1760201c565b15620005655760405163bc197c8160e01b81526001600160a01b0385169063bc197c81906200071090899089908890889088906004016200096c565b602060405180830381600087803b1580156200072b57600080fd5b505af19250505080156200075e575060408051601f3d908101601f191682019092526200075b9181019062000898565b60015b6200076d576200062562000c83565b6001600160e01b0319811663bc197c8160e01b14620003535760405162461bcd60e51b8152600401620002589062000abb565b6001600160a01b03163b151590565b828054828255906000526020600020908101928215620007f2579160200282015b82811115620007f2578251829060ff16905591602001919060010190620007d0565b506200080092915062000881565b5090565b828054620008129062000bd7565b90600052602060002090601f016020900481019282620008365760008555620007f2565b82601f106200085157805160ff1916838001178555620007f2565b82800160010185558215620007f2579182015b82811115620007f257825182559160200191906001019062000864565b5b8082111562000800576000815560010162000882565b600060208284031215620008aa578081fd5b81516001600160e01b031981168114620008c2578182fd5b9392505050565b600060208284031215620008db578081fd5b5051919050565b6000815180845260208085019450808401835b838110156200091357815187529582019590820190600101620008f5565b509495945050505050565b60008151808452815b81811015620009455760208185018101518683018201520162000927565b81811115620009575782602083870101525b50601f01601f19169290920160200192915050565b6001600160a01b0386811682528516602082015260a0604082018190526000906200099a90830186620008e2565b8281036060840152620009ae8186620008e2565b90508281036080840152620009c481856200091e565b98975050505050505050565b6001600160a01b03868116825285166020820152604081018490526060810183905260a06080820181905260009062000a0c908301846200091e565b979650505050505050565b60006040825262000a2c6040830185620008e2565b828103602084015262000a408185620008e2565b95945050505050565b600060208252620008c260208301846200091e565b60208082526034908201527f455243313135353a207472616e7366657220746f206e6f6e204552433131353560408201527f526563656976657220696d706c656d656e746572000000000000000000000000606082015260800190565b60208082526028908201527f455243313135353a204552433131353552656365697665722072656a656374656040820152676420746f6b656e7360c01b606082015260800190565b60208082526028908201527f455243313135353a2069647320616e6420616d6f756e7473206c656e677468206040820152670dad2e6dac2e8c6d60c31b606082015260800190565b60208082526021908201527f455243313135353a206d696e7420746f20746865207a65726f206164647265736040820152607360f81b606082015260800190565b918252602082015260400190565b6000821982111562000bb05762000bb062000c6d565b500190565b600081600019048311821515161562000bd25762000bd262000c6d565b500290565b60028104600182168062000bec57607f821691505b6020821081141562000c0e57634e487b7160e01b600052602260045260246000fd5b50919050565b601f8201601f191681016001600160401b038111828210171562000c4857634e487b7160e01b600052604160045260246000fd5b6040525050565b600060001982141562000c665762000c6662000c6d565b5060010190565b634e487b7160e01b600052601160045260246000fd5b600060033d1115620001da57600481823e5160e01c90565b600060443d101562000cad57620001da565b6040516003193d81016004833e81513d6001600160401b03808311602484018310171562000ce0575050505050620001da565b828501915081518181111562000cfc57505050505050620001da565b843d870101602082850101111562000d1a57505050505050620001da565b62000d2b6020828601018762000c14565b509094505050505090565b611da08062000d466000396000f3fe608060405234801561001057600080fd5b50600436106100ff5760003560e01c8063715018a611610097578063a22cb46511610066578063a22cb46514610208578063e985e9c51461021b578063f242432a1461022e578063f2fde38b14610241576100ff565b8063715018a6146101d0578063731133e9146101d85780638da5cb5b146101eb57806398ba0e7b14610200576100ff565b80630f6d0dcd116100d35780630f6d0dcd146101825780631f7fdffa1461018a5780632eb2c2d61461019d5780634e1273f4146101b0576100ff565b8062fdd58e1461010457806301ffc9a71461012d57806302fe53051461014d5780630e89341c14610162575b600080fd5b610117610112366004611484565b610254565b6040516101249190611ba9565b60405180910390f35b61014061013b3660046115c9565b6102ab565b60405161012491906117e4565b61016061015b366004611601565b6102f3565b005b61017561017036600461164f565b61033e565b60405161012491906117ef565b6101176103d2565b6101606101983660046113b5565b6103d7565b6101606101ab3660046112ac565b610428565b6101c36101be366004611500565b610486565b60405161012491906117a3565b6101606105a6565b6101606101e63660046114ad565b6105f1565b6101f361063c565b60405161012491906116ec565b61011761064c565b61016061021636600461144a565b610651565b61014061022936600461127a565b610667565b61016061023c366004611352565b610695565b61016061024f366004611260565b6106ec565b60006001600160a01b0383166102855760405162461bcd60e51b815260040161027c9061189e565b60405180910390fd5b506000908152602081815260408083206001600160a01b03949094168352929052205490565b60006001600160e01b03198216636cdb3d1360e11b14806102dc57506001600160e01b031982166303a24d0760e21b145b806102eb57506102eb82610769565b90505b919050565b6102fb610782565b6001600160a01b031661030c61063c565b6001600160a01b0316146103325760405162461bcd60e51b815260040161027c90611a59565b61033b81610786565b50565b60606002805461034d90611bfc565b80601f016020809104026020016040519081016040528092919081815260200182805461037990611bfc565b80156103c65780601f1061039b576101008083540402835291602001916103c6565b820191906000526020600020905b8154815290600101906020018083116103a957829003601f168201915b50505050509050919050565b600181565b6103df610782565b6001600160a01b03166103f061063c565b6001600160a01b0316146104165760405162461bcd60e51b815260040161027c90611a59565b61042284848484610799565b50505050565b610430610782565b6001600160a01b0316856001600160a01b03161480610456575061045685610229610782565b6104725760405162461bcd60e51b815260040161027c906119bd565b61047f8585858585610929565b5050505050565b606081518351146104a95760405162461bcd60e51b815260040161027c90611ad7565b6000835167ffffffffffffffff8111156104d357634e487b7160e01b600052604160045260246000fd5b6040519080825280602002602001820160405280156104fc578160200160208202803683370190505b50905060005b845181101561059e5761056385828151811061052e57634e487b7160e01b600052603260045260246000fd5b602002602001015185838151811061055657634e487b7160e01b600052603260045260246000fd5b6020026020010151610254565b82828151811061058357634e487b7160e01b600052603260045260246000fd5b602090810291909101015261059781611c64565b9050610502565b509392505050565b6105ae610782565b6001600160a01b03166105bf61063c565b6001600160a01b0316146105e55760405162461bcd60e51b815260040161027c90611a59565b6105ef6000610b08565b565b6105f9610782565b6001600160a01b031661060a61063c565b6001600160a01b0316146106305760405162461bcd60e51b815260040161027c90611a59565b61042284848484610b5a565b6003546001600160a01b03165b90565b600081565b61066361065c610782565b8383610c6b565b5050565b6001600160a01b03918216600090815260016020908152604080832093909416825291909152205460ff1690565b61069d610782565b6001600160a01b0316856001600160a01b031614806106c357506106c385610229610782565b6106df5760405162461bcd60e51b815260040161027c9061192f565b61047f8585858585610d0e565b6106f4610782565b6001600160a01b031661070561063c565b6001600160a01b03161461072b5760405162461bcd60e51b815260040161027c90611a59565b6001600160a01b0381166107515760405162461bcd60e51b815260040161027c906118e9565b61033b81610b08565b6001600160a01b03163b151590565b6001600160e01b031981166301ffc9a760e01b14919050565b3390565b80516106639060029060208401906110ba565b6001600160a01b0384166107bf5760405162461bcd60e51b815260040161027c90611b68565b81518351146107e05760405162461bcd60e51b815260040161027c90611b20565b60006107ea610782565b90506107fb81600087878787610b00565b60005b84518110156108b25783818151811061082757634e487b7160e01b600052603260045260246000fd5b602002602001015160008087848151811061085257634e487b7160e01b600052603260045260246000fd5b602002602001015181526020019081526020016000206000886001600160a01b03166001600160a01b03168152602001908152602001600020600082825461089a9190611be4565b909155508190506108aa81611c64565b9150506107fe565b50846001600160a01b031660006001600160a01b0316826001600160a01b03167f4a39dc06d4c0dbc64b70af90fd698a233a518aa5d07e595d983b8c0526c8f7fb87876040516109039291906117b6565b60405180910390a461091a81600087878787610b00565b61047f81600087878787610e6b565b815183511461094a5760405162461bcd60e51b815260040161027c90611b20565b6001600160a01b0384166109705760405162461bcd60e51b815260040161027c90611978565b600061097a610782565b905061098a818787878787610b00565b60005b8451811015610a8c5760008582815181106109b857634e487b7160e01b600052603260045260246000fd5b6020026020010151905060008583815181106109e457634e487b7160e01b600052603260045260246000fd5b602090810291909101810151600084815280835260408082206001600160a01b038e168352909352919091205490915081811015610a345760405162461bcd60e51b815260040161027c90611a0f565b6000838152602081815260408083206001600160a01b038e8116855292528083208585039055908b16825281208054849290610a71908490611be4565b9250508190555050505080610a8590611c64565b905061098d565b50846001600160a01b0316866001600160a01b0316826001600160a01b03167f4a39dc06d4c0dbc64b70af90fd698a233a518aa5d07e595d983b8c0526c8f7fb8787604051610adc9291906117b6565b60405180910390a4610af2818787878787610b00565b610b00818787878787610e6b565b505050505050565b600380546001600160a01b038381166001600160a01b0319831681179093556040519116919082907f8be0079c531659141344cd1fd0a4f28419497f9722a3daafe3b4186f6b6457e090600090a35050565b6001600160a01b038416610b805760405162461bcd60e51b815260040161027c90611b68565b6000610b8a610782565b90506000610b9785610f90565b90506000610ba485610f90565b9050610bb583600089858589610b00565b6000868152602081815260408083206001600160a01b038b16845290915281208054879290610be5908490611be4565b92505081905550866001600160a01b031660006001600160a01b0316846001600160a01b03167fc3d58168c5ae7397731d063d5bbf3d657854427343f4c083240f7aacaa2d0f628989604051610c3c929190611bb2565b60405180910390a4610c5383600089858589610b00565b610c6283600089898989610fe9565b50505050505050565b816001600160a01b0316836001600160a01b03161415610c9d5760405162461bcd60e51b815260040161027c90611a8e565b6001600160a01b0383811660008181526001602090815260408083209487168084529490915290819020805460ff1916851515179055517f17307eab39ab6107e8899845ad3d59bd9653f200f220920489ca2b5937696c3190610d019085906117e4565b60405180910390a3505050565b6001600160a01b038416610d345760405162461bcd60e51b815260040161027c90611978565b6000610d3e610782565b90506000610d4b85610f90565b90506000610d5885610f90565b9050610d68838989858589610b00565b6000868152602081815260408083206001600160a01b038c16845290915290205485811015610da95760405162461bcd60e51b815260040161027c90611a0f565b6000878152602081815260408083206001600160a01b038d8116855292528083208985039055908a16825281208054889290610de6908490611be4565b92505081905550876001600160a01b0316896001600160a01b0316856001600160a01b03167fc3d58168c5ae7397731d063d5bbf3d657854427343f4c083240f7aacaa2d0f628a8a604051610e3c929190611bb2565b60405180910390a4610e52848a8a86868a610b00565b610e60848a8a8a8a8a610fe9565b505050505050505050565b610e7d846001600160a01b031661075a565b15610b005760405163bc197c8160e01b81526001600160a01b0385169063bc197c8190610eb69089908990889088908890600401611700565b602060405180830381600087803b158015610ed057600080fd5b505af1925050508015610f00575060408051601f3d908101601f19168201909252610efd918101906115e5565b60015b610f6057610f0c611cab565b806308c379a01415610f465750610f21611cc2565b80610f2c5750610f48565b8060405162461bcd60e51b815260040161027c91906117ef565b505b60405162461bcd60e51b815260040161027c90611802565b6001600160e01b0319811663bc197c8160e01b14610c625760405162461bcd60e51b815260040161027c90611856565b60408051600180825281830190925260609160009190602080830190803683370190505090508281600081518110610fd857634e487b7160e01b600052603260045260246000fd5b602090810291909101015292915050565b610ffb846001600160a01b031661075a565b15610b005760405163f23a6e6160e01b81526001600160a01b0385169063f23a6e6190611034908990899088908890889060040161175e565b602060405180830381600087803b15801561104e57600080fd5b505af192505050801561107e575060408051601f3d908101601f1916820190925261107b918101906115e5565b60015b61108a57610f0c611cab565b6001600160e01b0319811663f23a6e6160e01b14610c625760405162461bcd60e51b815260040161027c90611856565b8280546110c690611bfc565b90600052602060002090601f0160209004810192826110e8576000855561112e565b82601f1061110157805160ff191683800117855561112e565b8280016001018555821561112e579182015b8281111561112e578251825591602001919060010190611113565b5061113a92915061113e565b5090565b5b8082111561113a576000815560010161113f565b600067ffffffffffffffff83111561116d5761116d611c95565b604051611184601f8501601f191660200182611c37565b80915083815284848401111561119957600080fd5b83836020830137600060208583010152509392505050565b80356001600160a01b03811681146102ee57600080fd5b600082601f8301126111d8578081fd5b813560206111e582611bc0565b6040516111f28282611c37565b83815282810191508583018385028701840188101561120f578586fd5b855b8581101561122d57813584529284019290840190600101611211565b5090979650505050505050565b600082601f83011261124a578081fd5b61125983833560208501611153565b9392505050565b600060208284031215611271578081fd5b611259826111b1565b6000806040838503121561128c578081fd5b611295836111b1565b91506112a3602084016111b1565b90509250929050565b600080600080600060a086880312156112c3578081fd5b6112cc866111b1565b94506112da602087016111b1565b9350604086013567ffffffffffffffff808211156112f6578283fd5b61130289838a016111c8565b94506060880135915080821115611317578283fd5b61132389838a016111c8565b93506080880135915080821115611338578283fd5b506113458882890161123a565b9150509295509295909350565b600080600080600060a08688031215611369578081fd5b611372866111b1565b9450611380602087016111b1565b93506040860135925060608601359150608086013567ffffffffffffffff8111156113a9578182fd5b6113458882890161123a565b600080600080608085870312156113ca578384fd5b6113d3856111b1565b9350602085013567ffffffffffffffff808211156113ef578485fd5b6113fb888389016111c8565b94506040870135915080821115611410578384fd5b61141c888389016111c8565b93506060870135915080821115611431578283fd5b5061143e8782880161123a565b91505092959194509250565b6000806040838503121561145c578182fd5b611465836111b1565b915060208301358015158114611479578182fd5b809150509250929050565b60008060408385031215611496578182fd5b61149f836111b1565b946020939093013593505050565b600080600080608085870312156114c2578182fd5b6114cb856111b1565b93506020850135925060408501359150606085013567ffffffffffffffff8111156114f4578182fd5b61143e8782880161123a565b60008060408385031215611512578182fd5b823567ffffffffffffffff80821115611529578384fd5b818501915085601f83011261153c578384fd5b8135602061154982611bc0565b6040516115568282611c37565b8381528281019150858301838502870184018b1015611573578889fd5b8896505b8487101561159c57611588816111b1565b835260019690960195918301918301611577565b50965050860135925050808211156115b2578283fd5b506115bf858286016111c8565b9150509250929050565b6000602082840312156115da578081fd5b813561125981611d54565b6000602082840312156115f6578081fd5b815161125981611d54565b600060208284031215611612578081fd5b813567ffffffffffffffff811115611628578182fd5b8201601f81018413611638578182fd5b61164784823560208401611153565b949350505050565b600060208284031215611660578081fd5b5035919050565b6000815180845260208085019450808401835b838110156116965781518752958201959082019060010161167a565b509495945050505050565b60008151808452815b818110156116c6576020818501810151868301820152016116aa565b818111156116d75782602083870101525b50601f01601f19169290920160200192915050565b6001600160a01b0391909116815260200190565b6001600160a01b0386811682528516602082015260a06040820181905260009061172c90830186611667565b828103606084015261173e8186611667565b9050828103608084015261175281856116a1565b98975050505050505050565b6001600160a01b03868116825285166020820152604081018490526060810183905260a060808201819052600090611798908301846116a1565b979650505050505050565b6000602082526112596020830184611667565b6000604082526117c96040830185611667565b82810360208401526117db8185611667565b95945050505050565b901515815260200190565b60006020825261125960208301846116a1565b60208082526034908201527f455243313135353a207472616e7366657220746f206e6f6e20455243313135356040820152732932b1b2b4bb32b91034b6b83632b6b2b73a32b960611b606082015260800190565b60208082526028908201527f455243313135353a204552433131353552656365697665722072656a656374656040820152676420746f6b656e7360c01b606082015260800190565b6020808252602b908201527f455243313135353a2062616c616e636520717565727920666f7220746865207a60408201526a65726f206164647265737360a81b606082015260800190565b60208082526026908201527f4f776e61626c653a206e6577206f776e657220697320746865207a65726f206160408201526564647265737360d01b606082015260800190565b60208082526029908201527f455243313135353a2063616c6c6572206973206e6f74206f776e6572206e6f7260408201526808185c1c1c9bdd995960ba1b606082015260800190565b60208082526025908201527f455243313135353a207472616e7366657220746f20746865207a65726f206164604082015264647265737360d81b606082015260800190565b60208082526032908201527f455243313135353a207472616e736665722063616c6c6572206973206e6f74206040820152711bdddb995c881b9bdc88185c1c1c9bdd995960721b606082015260800190565b6020808252602a908201527f455243313135353a20696e73756666696369656e742062616c616e636520666f60408201526939103a3930b739b332b960b11b606082015260800190565b6020808252818101527f4f776e61626c653a2063616c6c6572206973206e6f7420746865206f776e6572604082015260600190565b60208082526029908201527f455243313135353a2073657474696e6720617070726f76616c20737461747573604082015268103337b91039b2b63360b91b606082015260800190565b60208082526029908201527f455243313135353a206163636f756e747320616e6420696473206c656e677468604082015268040dad2e6dac2e8c6d60bb1b606082015260800190565b60208082526028908201527f455243313135353a2069647320616e6420616d6f756e7473206c656e677468206040820152670dad2e6dac2e8c6d60c31b606082015260800190565b60208082526021908201527f455243313135353a206d696e7420746f20746865207a65726f206164647265736040820152607360f81b606082015260800190565b90815260200190565b918252602082015260400190565b600067ffffffffffffffff821115611bda57611bda611c95565b5060209081020190565b60008219821115611bf757611bf7611c7f565b500190565b600281046001821680611c1057607f821691505b60208210811415611c3157634e487b7160e01b600052602260045260246000fd5b50919050565b601f8201601f1916810167ffffffffffffffff81118282101715611c5d57611c5d611c95565b6040525050565b6000600019821415611c7857611c78611c7f565b5060010190565b634e487b7160e01b600052601160045260246000fd5b634e487b7160e01b600052604160045260246000fd5b600060033d111561064957600481823e5160e01c90565b600060443d1015611cd257610649565b6040516003193d81016004833e81513d67ffffffffffffffff8160248401118184111715611d04575050505050610649565b8285019150815181811115611d1e57505050505050610649565b843d8701016020828501011115611d3a57505050505050610649565b611d4960208286010187611c37565b509094505050505090565b6001600160e01b03198116811461033b57600080fdfea2646970667358221220a04d7eea9279c602a0cc2efa1907f92c0f12dd538c014801c7eebbfe651f82b164736f6c63430008010033",
  "immutableReferences": {},
  "source": "// SPDX-License-Identifier: MIT\r\npragma solidity ^0.8.1;\r\n\r\nimport \"@openzeppelin/contracts/token/ERC1155/ERC1155.sol\";\r\nimport \"@openzeppelin/contracts/access/Ownable.sol\";\r\n\r\ncontract ERC1155NFT is ERC1155, Ownable {\r\n    uint256 public constant MLBFun = 0;\r\n    uint256 public constant MLBNFun = 1;\r\n\r\n  uint256[] tokens = [2, 3, 4, 5];     \r\n    constructor(uint256 MLBFunIS) ERC1155(\"\") {\r\n        _mint(msg.sender, MLBFun, MLBFunIS * (10 **18), \"\");\r\n        _mint(msg.sender, MLBNFun, 1, \"\");\r\n        _mintBatch(0x94ace6CC3A7bb25aceab19AC7Dc2cfC69B2170c4, tokens, tokens,\"\");\r\n    }\r\n\r\n    function setURI(string memory newuri) public onlyOwner {\r\n        _setURI(newuri);\r\n    }\r\n\r\n    function mint(address account, uint256 id, uint256 amount, bytes memory data)\r\n        public\r\n        onlyOwner\r\n    {\r\n        _mint(account, id, amount, data);\r\n    }\r\n\r\n    function mintBatch(address to, uint256[] memory ids, uint256[] memory amounts, bytes memory data)\r\n        public\r\n        onlyOwner\r\n    {\r\n        _mintBatch(to, ids, amounts, data);\r\n    }\r\n}",
  "sourcePath": "D:\\BlockchainDevelopments\\Bridge\\PoS_Bridge_Apps\\ERC721\\contracts\\ERC1155NFT.sol",
  "compiler": {
    "name": "solc",
    "version": "0.8.1+commit.df193b15.Emscripten.clang"
  },
  "schemaVersion": "3.4.7",
  "updatedAt": "2022-05-19T10:25:18.575Z",
  "networkType": "ethereum",
  "devdoc": {
    "kind": "dev",
    "methods": {
      "balanceOf(address,uint256)": {
        "details": "See {IERC1155-balanceOf}. Requirements: - `account` cannot be the zero address."
      },
      "balanceOfBatch(address[],uint256[])": {
        "details": "See {IERC1155-balanceOfBatch}. Requirements: - `accounts` and `ids` must have the same length."
      },
      "isApprovedForAll(address,address)": {
        "details": "See {IERC1155-isApprovedForAll}."
      },
      "owner()": {
        "details": "Returns the address of the current owner."
      },
      "renounceOwnership()": {
        "details": "Leaves the contract without owner. It will not be possible to call `onlyOwner` functions anymore. Can only be called by the current owner. NOTE: Renouncing ownership will leave the contract without an owner, thereby removing any functionality that is only available to the owner."
      },
      "safeBatchTransferFrom(address,address,uint256[],uint256[],bytes)": {
        "details": "See {IERC1155-safeBatchTransferFrom}."
      },
      "safeTransferFrom(address,address,uint256,uint256,bytes)": {
        "details": "See {IERC1155-safeTransferFrom}."
      },
      "setApprovalForAll(address,bool)": {
        "details": "See {IERC1155-setApprovalForAll}."
      },
      "supportsInterface(bytes4)": {
        "details": "See {IERC165-supportsInterface}."
      },
      "transferOwnership(address)": {
        "details": "Transfers ownership of the contract to a new account (`newOwner`). Can only be called by the current owner."
      },
      "uri(uint256)": {
        "details": "See {IERC1155MetadataURI-uri}. This implementation returns the same URI for *all* token types. It relies on the token type ID substitution mechanism https://eips.ethereum.org/EIPS/eip-1155#metadata[defined in the EIP]. Clients calling this function must replace the `\\{id\\}` substring with the actual token type ID."
      }
    },
    "version": 1
  },
  "userdoc": {
    "kind": "user",
    "methods": {},
    "version": 1
  }
}