{
  "contractName": "SELISENft",
  "abi": [
    {
      "inputs": [],
      "stateMutability": "nonpayable",
      "type": "constructor"
    },
    {
      "anonymous": false,
      "inputs": [
        {
          "indexed": true,
          "internalType": "address",
          "name": "owner",
          "type": "address"
        },
        {
          "indexed": true,
          "internalType": "address",
          "name": "approved",
          "type": "address"
        },
        {
          "indexed": true,
          "internalType": "uint256",
          "name": "tokenId",
          "type": "uint256"
        }
      ],
      "name": "Approval",
      "type": "event"
    },
    {
      "anonymous": false,
      "inputs": [
        {
          "indexed": true,
          "internalType": "address",
          "name": "owner",
          "type": "address"
        },
        {
          "indexed": true,
          "internalType": "address",
          "name": "operator",
          "type": "address"
        },
        {
          "indexed": false,
          "internalType": "bool",
          "name": "approved",
          "type": "bool"
        }
      ],
      "name": "ApprovalForAll",
      "type": "event"
    },
    {
      "anonymous": false,
      "inputs": [
        {
          "indexed": true,
          "internalType": "address",
          "name": "previousOwner",
          "type": "address"
        },
        {
          "indexed": true,
          "internalType": "address",
          "name": "newOwner",
          "type": "address"
        }
      ],
      "name": "OwnershipTransferred",
      "type": "event"
    },
    {
      "anonymous": false,
      "inputs": [
        {
          "indexed": true,
          "internalType": "address",
          "name": "from",
          "type": "address"
        },
        {
          "indexed": true,
          "internalType": "address",
          "name": "to",
          "type": "address"
        },
        {
          "indexed": true,
          "internalType": "uint256",
          "name": "tokenId",
          "type": "uint256"
        }
      ],
      "name": "Transfer",
      "type": "event"
    },
    {
      "inputs": [
        {
          "internalType": "address",
          "name": "to",
          "type": "address"
        },
        {
          "internalType": "uint256",
          "name": "tokenId",
          "type": "uint256"
        }
      ],
      "name": "approve",
      "outputs": [],
      "stateMutability": "nonpayable",
      "type": "function"
    },
    {
      "inputs": [
        {
          "internalType": "address",
          "name": "owner",
          "type": "address"
        }
      ],
      "name": "balanceOf",
      "outputs": [
        {
          "internalType": "uint256",
          "name": "",
          "type": "uint256"
        }
      ],
      "stateMutability": "view",
      "type": "function"
    },
    {
      "inputs": [
        {
          "internalType": "uint256",
          "name": "tokenId",
          "type": "uint256"
        }
      ],
      "name": "getApproved",
      "outputs": [
        {
          "internalType": "address",
          "name": "",
          "type": "address"
        }
      ],
      "stateMutability": "view",
      "type": "function"
    },
    {
      "inputs": [
        {
          "internalType": "address",
          "name": "owner",
          "type": "address"
        },
        {
          "internalType": "address",
          "name": "operator",
          "type": "address"
        }
      ],
      "name": "isApprovedForAll",
      "outputs": [
        {
          "internalType": "bool",
          "name": "",
          "type": "bool"
        }
      ],
      "stateMutability": "view",
      "type": "function"
    },
    {
      "inputs": [],
      "name": "name",
      "outputs": [
        {
          "internalType": "string",
          "name": "",
          "type": "string"
        }
      ],
      "stateMutability": "view",
      "type": "function"
    },
    {
      "inputs": [],
      "name": "owner",
      "outputs": [
        {
          "internalType": "address",
          "name": "",
          "type": "address"
        }
      ],
      "stateMutability": "view",
      "type": "function"
    },
    {
      "inputs": [
        {
          "internalType": "uint256",
          "name": "tokenId",
          "type": "uint256"
        }
      ],
      "name": "ownerOf",
      "outputs": [
        {
          "internalType": "address",
          "name": "",
          "type": "address"
        }
      ],
      "stateMutability": "view",
      "type": "function"
    },
    {
      "inputs": [],
      "name": "renounceOwnership",
      "outputs": [],
      "stateMutability": "nonpayable",
      "type": "function"
    },
    {
      "inputs": [
        {
          "internalType": "address",
          "name": "from",
          "type": "address"
        },
        {
          "internalType": "address",
          "name": "to",
          "type": "address"
        },
        {
          "internalType": "uint256",
          "name": "tokenId",
          "type": "uint256"
        }
      ],
      "name": "safeTransferFrom",
      "outputs": [],
      "stateMutability": "nonpayable",
      "type": "function"
    },
    {
      "inputs": [
        {
          "internalType": "address",
          "name": "from",
          "type": "address"
        },
        {
          "internalType": "address",
          "name": "to",
          "type": "address"
        },
        {
          "internalType": "uint256",
          "name": "tokenId",
          "type": "uint256"
        },
        {
          "internalType": "bytes",
          "name": "_data",
          "type": "bytes"
        }
      ],
      "name": "safeTransferFrom",
      "outputs": [],
      "stateMutability": "nonpayable",
      "type": "function"
    },
    {
      "inputs": [
        {
          "internalType": "address",
          "name": "operator",
          "type": "address"
        },
        {
          "internalType": "bool",
          "name": "approved",
          "type": "bool"
        }
      ],
      "name": "setApprovalForAll",
      "outputs": [],
      "stateMutability": "nonpayable",
      "type": "function"
    },
    {
      "inputs": [
        {
          "internalType": "bytes4",
          "name": "interfaceId",
          "type": "bytes4"
        }
      ],
      "name": "supportsInterface",
      "outputs": [
        {
          "internalType": "bool",
          "name": "",
          "type": "bool"
        }
      ],
      "stateMutability": "view",
      "type": "function"
    },
    {
      "inputs": [],
      "name": "symbol",
      "outputs": [
        {
          "internalType": "string",
          "name": "",
          "type": "string"
        }
      ],
      "stateMutability": "view",
      "type": "function"
    },
    {
      "inputs": [
        {
          "internalType": "uint256",
          "name": "tokenId",
          "type": "uint256"
        }
      ],
      "name": "tokenURI",
      "outputs": [
        {
          "internalType": "string",
          "name": "",
          "type": "string"
        }
      ],
      "stateMutability": "view",
      "type": "function"
    },
    {
      "inputs": [
        {
          "internalType": "address",
          "name": "from",
          "type": "address"
        },
        {
          "internalType": "address",
          "name": "to",
          "type": "address"
        },
        {
          "internalType": "uint256",
          "name": "tokenId",
          "type": "uint256"
        }
      ],
      "name": "transferFrom",
      "outputs": [],
      "stateMutability": "nonpayable",
      "type": "function"
    },
    {
      "inputs": [
        {
          "internalType": "address",
          "name": "newOwner",
          "type": "address"
        }
      ],
      "name": "transferOwnership",
      "outputs": [],
      "stateMutability": "nonpayable",
      "type": "function"
    },
    {
      "inputs": [
        {
          "internalType": "address",
          "name": "to",
          "type": "address"
        },
        {
          "internalType": "uint256",
          "name": "tokenId",
          "type": "uint256"
        }
      ],
      "name": "safeMint",
      "outputs": [],
      "stateMutability": "nonpayable",
      "type": "function"
    }
  ],
  "bytecode": "0x60806040523480156200001157600080fd5b50604080518082018252600981526814d1531254d153999d60ba1b60208083019182528351808501909452600484526314d3919560e21b9084015281519192916200005f91600091620003e5565b50805162000075906001906020840190620003e5565b505050620000926200008c6200026b60201b60201c565b6200026f565b620000aa336006620002c160201b620007191760201c565b620000c2336007620002c160201b620007191760201c565b620000da336008620002c160201b620007191760201c565b620000f2336009620002c160201b620007191760201c565b6200011960008051602062001ca68339815191526001620002c160201b620007191760201c565b6200014060008051602062001ca68339815191526002620002c160201b620007191760201c565b6200016760008051602062001ca68339815191526003620002c160201b620007191760201c565b6200018e60008051602062001ca68339815191526004620002c160201b620007191760201c565b620001b560008051602062001ca68339815191526005620002c160201b620007191760201c565b620001e17394ace6cc3a7bb25aceab19ac7dc2cfc69b2170c4600a620002c160201b620007191760201c565b6200020d7394ace6cc3a7bb25aceab19ac7dc2cfc69b2170c4600b620002c160201b620007191760201c565b620002397394ace6cc3a7bb25aceab19ac7dc2cfc69b2170c4600c620002c160201b620007191760201c565b620002657394ace6cc3a7bb25aceab19ac7dc2cfc69b2170c4600d620002c160201b620007191760201c565b62000559565b3390565b600680546001600160a01b038381166001600160a01b0319831681179093556040519116919082907f8be0079c531659141344cd1fd0a4f28419497f9722a3daafe3b4186f6b6457e090600090a35050565b6001600160a01b038216620002f35760405162461bcd60e51b8152600401620002ea90620004c2565b60405180910390fd5b620002fe81620003c3565b156200031e5760405162461bcd60e51b8152600401620002ea906200048b565b6200032c60008383620003e0565b6001600160a01b038216600090815260036020526040812080546001929062000357908490620004f7565b909155505060008181526002602052604080822080546001600160a01b0319166001600160a01b03861690811790915590518392907fddf252ad1be2c89b69c2b068fc378daa952ba7f163c4a11628f55a4df523b3ef908290a4620003bf60008383620003e0565b5050565b6000908152600260205260409020546001600160a01b0316151590565b505050565b828054620003f3906200051c565b90600052602060002090601f01602090048101928262000417576000855562000462565b82601f106200043257805160ff191683800117855562000462565b8280016001018555821562000462579182015b828111156200046257825182559160200191906001019062000445565b506200047092915062000474565b5090565b5b8082111562000470576000815560010162000475565b6020808252601c908201527f4552433732313a20746f6b656e20616c7265616479206d696e74656400000000604082015260600190565b6020808252818101527f4552433732313a206d696e7420746f20746865207a65726f2061646472657373604082015260600190565b600082198211156200051757634e487b7160e01b81526011600452602481fd5b500190565b6002810460018216806200053157607f821691505b602082108114156200055357634e487b7160e01b600052602260045260246000fd5b50919050565b61173d80620005696000396000f3fe608060405234801561001057600080fd5b506004361061010b5760003560e01c8063715018a6116100a2578063a22cb46511610071578063a22cb46514610207578063b88d4fde1461021a578063c87b56dd1461022d578063e985e9c514610240578063f2fde38b146102535761010b565b8063715018a6146101dc5780638da5cb5b146101e457806395d89b41146101ec578063a1448194146101f45761010b565b806323b872dd116100de57806323b872dd1461018357806342842e0e146101965780636352211e146101a957806370a08231146101bc5761010b565b806301ffc9a71461011057806306fdde0314610139578063081812fc1461014e578063095ea7b31461016e575b600080fd5b61012361011e366004611010565b610266565b604051610130919061110c565b60405180910390f35b6101416102ae565b6040516101309190611117565b61016161015c366004611048565b610340565b60405161013091906110bb565b61018161017c366004610fe7565b61038c565b005b610181610191366004610e9d565b610424565b6101816101a4366004610e9d565b61045c565b6101616101b7366004611048565b610477565b6101cf6101ca366004610e51565b6104ac565b604051610130919061158c565b6101816104f0565b61016161053b565b61014161054a565b610181610202366004610fe7565b610559565b610181610215366004610fad565b6105a6565b610181610228366004610ed8565b6105b8565b61014161023b366004611048565b6105f7565b61012361024e366004610e6b565b61067a565b610181610261366004610e51565b6106a8565b60006001600160e01b031982166380ac58cd60e01b148061029757506001600160e01b03198216635b5e139f60e01b145b806102a657506102a682610800565b90505b919050565b6060600080546102bd90611604565b80601f01602080910402602001604051908101604052809291908181526020018280546102e990611604565b80156103365780601f1061030b57610100808354040283529160200191610336565b820191906000526020600020905b81548152906001019060200180831161031957829003601f168201915b5050505050905090565b600061034b82610819565b6103705760405162461bcd60e51b81526004016103679061142a565b60405180910390fd5b506000908152600460205260409020546001600160a01b031690565b600061039782610477565b9050806001600160a01b0316836001600160a01b031614156103cb5760405162461bcd60e51b8152600401610367906114fa565b806001600160a01b03166103dd610836565b6001600160a01b031614806103f957506103f98161024e610836565b6104155760405162461bcd60e51b815260040161036790611305565b61041f838361083a565b505050565b61043561042f610836565b826108a8565b6104515760405162461bcd60e51b81526004016103679061153b565b61041f83838361092d565b61041f838383604051806020016040528060008152506105b8565b6000818152600260205260408120546001600160a01b0316806102a65760405162461bcd60e51b8152600401610367906113ac565b60006001600160a01b0382166104d45760405162461bcd60e51b815260040161036790611362565b506001600160a01b031660009081526003602052604090205490565b6104f8610836565b6001600160a01b031661050961053b565b6001600160a01b03161461052f5760405162461bcd60e51b815260040161036790611476565b6105396000610a60565b565b6006546001600160a01b031690565b6060600180546102bd90611604565b610561610836565b6001600160a01b031661057261053b565b6001600160a01b0316146105985760405162461bcd60e51b815260040161036790611476565b6105a28282610ab2565b5050565b6105a26105b1610836565b8383610acc565b6105c96105c3610836565b836108a8565b6105e55760405162461bcd60e51b81526004016103679061153b565b6105f184848484610b6f565b50505050565b606061060282610819565b61061e5760405162461bcd60e51b8152600401610367906114ab565b6000610628610ba2565b905060008151116106485760405180602001604052806000815250610673565b8061065284610bc2565b60405160200161066392919061108c565b6040516020818303038152906040525b9392505050565b6001600160a01b03918216600090815260056020908152604080832093909416825291909152205460ff1690565b6106b0610836565b6001600160a01b03166106c161053b565b6001600160a01b0316146106e75760405162461bcd60e51b815260040161036790611476565b6001600160a01b03811661070d5760405162461bcd60e51b81526004016103679061117c565b61071681610a60565b50565b6001600160a01b03821661073f5760405162461bcd60e51b8152600401610367906113f5565b61074881610819565b156107655760405162461bcd60e51b815260040161036790611207565b6107716000838361041f565b6001600160a01b038216600090815260036020526040812080546001929061079a908490611595565b909155505060008181526002602052604080822080546001600160a01b0319166001600160a01b03861690811790915590518392907fddf252ad1be2c89b69c2b068fc378daa952ba7f163c4a11628f55a4df523b3ef908290a46105a26000838361041f565b6001600160e01b031981166301ffc9a760e01b14919050565b6000908152600260205260409020546001600160a01b0316151590565b3390565b600081815260046020526040902080546001600160a01b0319166001600160a01b038416908117909155819061086f82610477565b6001600160a01b03167f8c5be1e5ebec7d5bd14f71427d1e84f3dd0314c0f7b2291e5b200ac8c7c3b92560405160405180910390a45050565b60006108b382610819565b6108cf5760405162461bcd60e51b8152600401610367906112b9565b60006108da83610477565b9050806001600160a01b0316846001600160a01b031614806109015750610901818561067a565b806109255750836001600160a01b031661091a84610340565b6001600160a01b0316145b949350505050565b826001600160a01b031661094082610477565b6001600160a01b0316146109665760405162461bcd60e51b8152600401610367906111c2565b6001600160a01b03821661098c5760405162461bcd60e51b81526004016103679061123e565b61099783838361041f565b6109a260008261083a565b6001600160a01b03831660009081526003602052604081208054600192906109cb9084906115c1565b90915550506001600160a01b03821660009081526003602052604081208054600192906109f9908490611595565b909155505060008181526002602052604080822080546001600160a01b0319166001600160a01b0386811691821790925591518493918716917fddf252ad1be2c89b69c2b068fc378daa952ba7f163c4a11628f55a4df523b3ef91a461041f83838361041f565b600680546001600160a01b038381166001600160a01b0319831681179093556040519116919082907f8be0079c531659141344cd1fd0a4f28419497f9722a3daafe3b4186f6b6457e090600090a35050565b6105a2828260405180602001604052806000815250610cdd565b816001600160a01b0316836001600160a01b03161415610afe5760405162461bcd60e51b815260040161036790611282565b6001600160a01b0383811660008181526005602090815260408083209487168084529490915290819020805460ff1916851515179055517f17307eab39ab6107e8899845ad3d59bd9653f200f220920489ca2b5937696c3190610b6290859061110c565b60405180910390a3505050565b610b7a84848461092d565b610b8684848484610d10565b6105f15760405162461bcd60e51b81526004016103679061112a565b60606040518060800160405280604181526020016116c760419139905090565b606081610be757506040805180820190915260018152600360fc1b60208201526102a9565b8160005b8115610c115780610bfb8161163f565b9150610c0a9050600a836115ad565b9150610beb565b60008167ffffffffffffffff811115610c3a57634e487b7160e01b600052604160045260246000fd5b6040519080825280601f01601f191660200182016040528015610c64576020820181803683370190505b5090505b841561092557610c796001836115c1565b9150610c86600a8661165a565b610c91906030611595565b60f81b818381518110610cb457634e487b7160e01b600052603260045260246000fd5b60200101906001600160f81b031916908160001a905350610cd6600a866115ad565b9450610c68565b610ce78383610719565b610cf46000848484610d10565b61041f5760405162461bcd60e51b81526004016103679061112a565b6000610d24846001600160a01b0316610e2b565b15610e2057836001600160a01b031663150b7a02610d40610836565b8786866040518563ffffffff1660e01b8152600401610d6294939291906110cf565b602060405180830381600087803b158015610d7c57600080fd5b505af1925050508015610dac575060408051601f3d908101601f19168201909252610da99181019061102c565b60015b610e06573d808015610dda576040519150601f19603f3d011682016040523d82523d6000602084013e610ddf565b606091505b508051610dfe5760405162461bcd60e51b81526004016103679061112a565b805181602001fd5b6001600160e01b031916630a85bd0160e11b149050610925565b506001949350505050565b6001600160a01b03163b151590565b80356001600160a01b03811681146102a957600080fd5b600060208284031215610e62578081fd5b61067382610e3a565b60008060408385031215610e7d578081fd5b610e8683610e3a565b9150610e9460208401610e3a565b90509250929050565b600080600060608486031215610eb1578081fd5b610eba84610e3a565b9250610ec860208501610e3a565b9150604084013590509250925092565b60008060008060808587031215610eed578081fd5b610ef685610e3a565b9350610f0460208601610e3a565b925060408501359150606085013567ffffffffffffffff80821115610f27578283fd5b818701915087601f830112610f3a578283fd5b813581811115610f4c57610f4c61169a565b604051601f8201601f19908116603f01168101908382118183101715610f7457610f7461169a565b816040528281528a6020848701011115610f8c578586fd5b82602086016020830137918201602001949094529598949750929550505050565b60008060408385031215610fbf578182fd5b610fc883610e3a565b915060208301358015158114610fdc578182fd5b809150509250929050565b60008060408385031215610ff9578182fd5b61100283610e3a565b946020939093013593505050565b600060208284031215611021578081fd5b8135610673816116b0565b60006020828403121561103d578081fd5b8151610673816116b0565b600060208284031215611059578081fd5b5035919050565b600081518084526110788160208601602086016115d8565b601f01601f19169290920160200192915050565b6000835161109e8184602088016115d8565b8351908301906110b28183602088016115d8565b01949350505050565b6001600160a01b0391909116815260200190565b6001600160a01b038581168252841660208201526040810183905260806060820181905260009061110290830184611060565b9695505050505050565b901515815260200190565b6000602082526106736020830184611060565b60208082526032908201527f4552433732313a207472616e7366657220746f206e6f6e20455243373231526560408201527131b2b4bb32b91034b6b83632b6b2b73a32b960711b606082015260800190565b60208082526026908201527f4f776e61626c653a206e6577206f776e657220697320746865207a65726f206160408201526564647265737360d01b606082015260800190565b60208082526025908201527f4552433732313a207472616e736665722066726f6d20696e636f72726563742060408201526437bbb732b960d91b606082015260800190565b6020808252601c908201527f4552433732313a20746f6b656e20616c7265616479206d696e74656400000000604082015260600190565b60208082526024908201527f4552433732313a207472616e7366657220746f20746865207a65726f206164646040820152637265737360e01b606082015260800190565b60208082526019908201527f4552433732313a20617070726f766520746f2063616c6c657200000000000000604082015260600190565b6020808252602c908201527f4552433732313a206f70657261746f7220717565727920666f72206e6f6e657860408201526b34b9ba32b73a103a37b5b2b760a11b606082015260800190565b60208082526038908201527f4552433732313a20617070726f76652063616c6c6572206973206e6f74206f7760408201527f6e6572206e6f7220617070726f76656420666f7220616c6c0000000000000000606082015260800190565b6020808252602a908201527f4552433732313a2062616c616e636520717565727920666f7220746865207a65604082015269726f206164647265737360b01b606082015260800190565b60208082526029908201527f4552433732313a206f776e657220717565727920666f72206e6f6e657869737460408201526832b73a103a37b5b2b760b91b606082015260800190565b6020808252818101527f4552433732313a206d696e7420746f20746865207a65726f2061646472657373604082015260600190565b6020808252602c908201527f4552433732313a20617070726f76656420717565727920666f72206e6f6e657860408201526b34b9ba32b73a103a37b5b2b760a11b606082015260800190565b6020808252818101527f4f776e61626c653a2063616c6c6572206973206e6f7420746865206f776e6572604082015260600190565b6020808252602f908201527f4552433732314d657461646174613a2055524920717565727920666f72206e6f60408201526e3732bc34b9ba32b73a103a37b5b2b760891b606082015260800190565b60208082526021908201527f4552433732313a20617070726f76616c20746f2063757272656e74206f776e656040820152603960f91b606082015260800190565b60208082526031908201527f4552433732313a207472616e736665722063616c6c6572206973206e6f74206f6040820152701ddb995c881b9bdc88185c1c1c9bdd9959607a1b606082015260800190565b90815260200190565b600082198211156115a8576115a861166e565b500190565b6000826115bc576115bc611684565b500490565b6000828210156115d3576115d361166e565b500390565b60005b838110156115f35781810151838201526020016115db565b838111156105f15750506000910152565b60028104600182168061161857607f821691505b6020821081141561163957634e487b7160e01b600052602260045260246000fd5b50919050565b60006000198214156116535761165361166e565b5060010190565b60008261166957611669611684565b500690565b634e487b7160e01b600052601160045260246000fd5b634e487b7160e01b600052601260045260246000fd5b634e487b7160e01b600052604160045260246000fd5b6001600160e01b03198116811461071657600080fdfe68747470733a2f2f736961736b792e6e65742f4541426d674f544b556b636d6d78596562754c5a4b51595577367279676e433053444c4a3834705643456e6e5f41a26469706673582212207b2ba8487f14ddfb35b7d2fec0098f160d3397c4c9e08c69d694f8b44c984f2264736f6c63430008010033000000000000000000000000f39fd6e51aad88f6f4ce6ab8827279cfffb92266",
  "immutableReferences": {},
  "source": "// SPDX-License-Identifier: MIT\r\npragma solidity ^0.8.1;\r\nimport \"@openzeppelin/contracts/token/ERC721/ERC721.sol\";\r\nimport \"@openzeppelin/contracts/access/Ownable.sol\";\r\n\r\ncontract SELISENft is ERC721, Ownable {\r\n    constructor() ERC721(\"SELISENft\", \"SNFT\") {\r\n        super._mint(msg.sender, 6);\r\n        super._mint(msg.sender, 7);\r\n        super._mint(msg.sender, 8);\r\n        super._mint(msg.sender, 9);\r\n\r\n        super._mint(0xf39Fd6e51aad88F6F4ce6aB8827279cffFb92266, 1);\r\n        super._mint(0xf39Fd6e51aad88F6F4ce6aB8827279cffFb92266, 2);\r\n        super._mint(0xf39Fd6e51aad88F6F4ce6aB8827279cffFb92266, 3);\r\n        super._mint(0xf39Fd6e51aad88F6F4ce6aB8827279cffFb92266, 4);\r\n        super._mint(0xf39Fd6e51aad88F6F4ce6aB8827279cffFb92266, 5);\r\n\r\n        super._mint(0x94ace6CC3A7bb25aceab19AC7Dc2cfC69B2170c4, 10);\r\n        super._mint(0x94ace6CC3A7bb25aceab19AC7Dc2cfC69B2170c4, 11);\r\n        super._mint(0x94ace6CC3A7bb25aceab19AC7Dc2cfC69B2170c4, 12);\r\n        super._mint(0x94ace6CC3A7bb25aceab19AC7Dc2cfC69B2170c4, 13);\r\n    }\r\n\r\n    function _baseURI() internal pure override returns (string memory) {\r\n        return \"https://siasky.net/EABmgOTKUkcmmxYebuLZKQYUw6rygnC0SDLJ84pVCEnn_A\";\r\n    }\r\n\r\n    function safeMint(address to, uint256 tokenId) public onlyOwner {\r\n        _safeMint(to, tokenId);\r\n    }\r\n}\r\n",
  "sourcePath": "D:\\BlockchainDevelopments\\Bridge\\PoS_Bridge_Apps\\ERC721\\contracts\\SELISENft.sol",
  "compiler": {
    "name": "solc",
    "version": "0.8.1+commit.df193b15.Emscripten.clang"
  },
  "schemaVersion": "3.4.7",
  "updatedAt": "2022-05-19T10:24:43.950Z",
  "devdoc": {
    "kind": "dev",
    "methods": {
      "approve(address,uint256)": {
        "details": "See {IERC721-approve}."
      },
      "balanceOf(address)": {
        "details": "See {IERC721-balanceOf}."
      },
      "getApproved(uint256)": {
        "details": "See {IERC721-getApproved}."
      },
      "isApprovedForAll(address,address)": {
        "details": "See {IERC721-isApprovedForAll}."
      },
      "name()": {
        "details": "See {IERC721Metadata-name}."
      },
      "owner()": {
        "details": "Returns the address of the current owner."
      },
      "ownerOf(uint256)": {
        "details": "See {IERC721-ownerOf}."
      },
      "renounceOwnership()": {
        "details": "Leaves the contract without owner. It will not be possible to call `onlyOwner` functions anymore. Can only be called by the current owner. NOTE: Renouncing ownership will leave the contract without an owner, thereby removing any functionality that is only available to the owner."
      },
      "safeTransferFrom(address,address,uint256)": {
        "details": "See {IERC721-safeTransferFrom}."
      },
      "safeTransferFrom(address,address,uint256,bytes)": {
        "details": "See {IERC721-safeTransferFrom}."
      },
      "setApprovalForAll(address,bool)": {
        "details": "See {IERC721-setApprovalForAll}."
      },
      "supportsInterface(bytes4)": {
        "details": "See {IERC165-supportsInterface}."
      },
      "symbol()": {
        "details": "See {IERC721Metadata-symbol}."
      },
      "tokenURI(uint256)": {
        "details": "See {IERC721Metadata-tokenURI}."
      },
      "transferFrom(address,address,uint256)": {
        "details": "See {IERC721-transferFrom}."
      },
      "transferOwnership(address)": {
        "details": "Transfers ownership of the contract to a new account (`newOwner`). Can only be called by the current owner."
      }
    },
    "version": 1
  },
  "userdoc": {
    "kind": "user",
    "methods": {},
    "version": 1
  }
}